:020000040800F2
:1000000088240020D5020008E52F00087524000888
:10001000A52F0008CB1C00085F4900080000000065
:10002000000000000000000000000000453900084A
:10003000B922000800000000CF360008833B00080A
:10004000EF020008EF020008EF020008EF020008CC
:10005000EF020008EF020008EF020008EF020008BC
:10006000EF020008EF020008EF020008EF020008AC
:10007000EF020008EF020008EF020008EF0200089C
:10008000EF020008EF020008EF020008EF0200088C
:10009000EF020008EF020008EF020008EF0200087C
:1000A000EF020008EF020008EF020008EF0200086C
:1000B000553E0008B14000081D410008EF0200084D
:1000C000EF020008EF020008EF020008EF0200084C
:1000D000EF02000859460008E14600085D470008A5
:1000E000EF020008EF020008EF020008EF0200082C
:1000F000EF020008EF020008EF020008EF0200081C
:10010000EF020008EF020008EF020008EF0200080B
:10011000EF020008EF020008EF020008EF020008FB
:10012000EF020008EF020008EF020008EF020008EB
:10013000EF020008EF020008EF020008EF020008DB
:10014000EF020008EF020008EF020008EF020008CB
:10015000EF020008EF020008EF020008EF020008BB
:10016000EF020008EF020008EF020008EF020008AB
:10017000EF020008EF020008EF020008EF0200089B
:10018000EF020008EF02000800F002F800F092F819
:100190000AA090E8000C82448344AAF10107DA45E2
:1001A00001D100F087F8AFF2090EBAE80F0013F0A2
:1001B000010F18BFFB1A43F001031847BC6C000085
:1001C000DC6C0000103A24BF78C878C1FAD8520716
:1001D00024BF30C830C144BF04680C6070470000C1
:1001E0000023002400250026103A28BF78C1FBD840
:1001F000520728BF30C148BF0B6070476E2900F01E
:10020000F583702900F06181662905F02087652952
:1002100005F01D87672905F01A876129AFF3008073
:1002200003681B0A28BF41F08001692900F0D280D1
:10023000642900F0CF80752900F0CC806F2900F090
:10024000FC86782900F02D81E92900F09786E429C1
:1002500000F09486F52900F09186EF2900F0F986E8
:10026000F82900F02C810368DB0928BF41F08001E8
:10027000632900F00686732900F00B86E32900F05D
:10028000B987F32900F0BE87002070471FB505F03D
:10029000D4FE00F01BFF04000020002105F0E8F967
:1002A000401C60600020002105F0CCF9E0601FBD1B
:1002B00010B510BD01F044F81146FFF7E7FF04F058
:1002C000F3FF01F06BF803B4FFF7F2FF03BC04F097
:1002D00024FF00000948804709480047FEE7FEE781
:1002E000FEE7FEE7FEE7FEE7FEE7FEE7FEE7FEE7E6
:1002F00004480549054A064B70470000853B000845
:1003000089010008881E0020882400208820002001
:1003100088200020704700001CB50C46064B7B442B
:1003200069460090204600F08AFD04460020694698
:1003300000F098FD20461CBD430B00000FB404499B
:1003400010B503AA029800F0A9FD10BC5DF814FBDB
:10035000840000200FB41CB5084B06AA7B446946F4
:100360000090059800F06BFD04460020694600F0FF
:1003700079FD20461CBC5DF814FB0000050B000055
:1003800070B50C460546012A05D02878800600D5B0
:10039000EA69002302E0012305E05B1C934202D2DC
:1003A000E05C0028F9D1A869E618C01AA861286A9B
:1003B00018442862284600F087FA04E0D5E90121B4
:1003C00014F8010B9047B442F8D3284600F092FA93
:1003D00070BD00002DE9F041064600241068752923
:1003E000314616A510D000F096FA002802DA4042F5
:1003F00013A507E031688A0701D512A502E0490775
:1004000004D511A5012401E000F08EFA00210A2292
:1004100006F1240709E0B0FBF2FCB0FBF2F302FBAB
:100420001C00303078541846491C0028F3D123466C
:100430002A463046BDE8F04100F07FBA00000000D7
:100440002D0000002B00000020000000F0B40D463D
:100450000188090502D5214C7C4402E01F4C7C44F4
:100460000E34002100F1240608E002F00F07120903
:10047000E75D42EA03721B097754491C52EA0307FD
:10048000F3D102780023120704D5702D06D009B1EC
:10049000022311342246F0BC00F04FBA012310347D
:1004A000F8E770B504460D462146106800F03CFAA6
:1004B000024629462046BDE870400023C6E7D21D0B
:1004C00022F00703D3E90023C0E70368126843F072
:1004D000200303600823C3610023B7E726690000F7
:1004E0002DE9F05F894604464FF0000ADFF874B149
:1004F000FB44C0F820A02046E1688847002874D05B
:10050000252806D0D4E901219047206A401C2062AA
:10051000F1E700265F462046E16888472028054627
:1005200007DB312D05D2781910F8200C08B10643ED
:10053000F1E7B00701D526F00406C4F81CA0002797
:10054000C4F818A02A2D09D0284604F0DFFD38B3DE
:1005500004EB8708303DC8F8185019E059F8041B1F
:10056000204604EB87029161E1688847012F054628
:1005700018D1E069002820DA26F020061DE0D8F81E
:10058000180000EB800005EB40003038C8F8180078
:100590002046E1688847054604F0B8FD0028EED102
:1005A000012F0AD02E2D08D12046E16888477F1CF4
:1005B0000546022F46F02006C4DBA069002803DAB6
:1005C000404246F00106A061F00701D026F0100677
:1005D0006C2D0BD0682D09D04C2D39D06A2D35D01B
:1005E000742D35D07A2D33D016E038E0E1682F46EF
:1005F00020468847B842054609D16C2F26D04FF4D3
:100600008060E168064320468847054604E06C2F79
:100610001AD04FF4807006430DB3A5F1410019289C
:1006200002D8203546F400664A4629462046266010
:100630004E46FFF7E3FD80B101280BD0F61D26F0F2
:10064000070000F1080956E74020E4E78020D8E7DA
:100650000020D6E706F104094DE7284652E7206A54
:10066000BDE8F09FB668000030B505460B462A4647
:1006700013F8014B12F8010B08B1A042F8D01CB1DD
:10068000002802D06D1CF1E7284630BD40EA010386
:1006900010B59B070FD1042A0DD310C808C9121F2B
:1006A0009C42F8D020BA19BA884201D9012010BD65
:1006B0004FF0FF3010BD1AB1D30703D0521C07E032
:1006C000002010BD10F8013B11F8014B1B1B07D196
:1006D00010F8013B11F8014B1B1B01D1921EF1D107
:1006E000184610BD10B5431C02E010F8011B71B193
:1006F0008107FAD14FF0013202C88C1A8C4314EAF8
:10070000C211F9D0C01A0A0603D0C01E10BDC01A0B
:1007100010BD0A0401D0801E10BD0902FCD0401E8D
:1007200010BD032A40F2308010F0030C00F0158059
:1007300011F8013BBCF1020F624498BF11F801CBE4
:1007400000F8013B38BF11F8013BA2F1040298BF49
:1007500000F801CB38BF00F8013B11F0030300F0B3
:100760008384083AC0F0088051F8043B083A51F8F5
:1007700004CBA0E80810F5E7121D5CBF51F8043B5C
:1007800040F8043BAFF30080D20724BF11F8013BCF
:1007900011F801CB48BF11F8012B24BF00F8013B31
:1007A00000F801CB48BF00F8012B70474FF0000262
:1007B0000429C0F0128010F0030C00F01B80CCF173
:1007C000040CBCF1020F18BF00F8012BA8BF20F8E1
:1007D000022BA1EB0C0100F00DB85FEAC17C24BF35
:1007E00000F8012B00F8012B48BF00F8012B7047DF
:1007F0004FF0000200B5134694469646203922BFBA
:10080000A0E80C50A0E80C50B1F12001BFF4F7AF04
:10081000090728BFA0E80C5048BF0CC05DF804EBE6
:10082000890028BF40F8042B08BF704748BF20F854
:10083000022B11F0804F18BF00F8012B7047000009
:100840004FF0013C50F8042B51F8043B9A4221D15F
:10085000A2EB0C03934313EACC1317D150F8042BEB
:1008600051F8043B9A4215D1A2EB0C03934313EACF
:10087000CC130BD150F8042B51F8043B9A4209D108
:10088000A2EB0C03934313EACC13DBD04FF0000030
:10089000704700BFD01A01BAB1FA81F101F0180116
:1008A00022FA01F0CB40C1F12001DBB2C0B2C01A84
:1008B0002CFA01F3D11A914311EAC311E6D1704722
:1008C000704770477047704770B504468569006887
:1008D000C10601D5302600E02026C00707D070BD34
:1008E000D4E9012130469047206A401C20626D1EE9
:1008F000F6D570BD70B5044685690078C00707D18C
:1009000070BDD4E9012120209047206A401C20625C
:100910006D1EF6D570BD09684A0501D540B2704715
:10092000C905FCD500B2704709684A0501D5C0B2B7
:100930007047C905FCD580B270472DE9F0470D46D8
:1009400099469246044600F124080168880604D5B9
:10095000E06921F01001216000E00120A84201DDE2
:10096000471B00E00027A1697A1902EB0900081A69
:10097000A0612078C00602D42046FFF7A5FF00261C
:1009800008E0D4E901211AF806009047206A401CCB
:10099000761C20624E45F4DB2078C0060AD520463E
:1009A000FFF792FF06E0D4E9012130209047206A4A
:1009B000401C2062381EA7F10107F4DC07E0D4E9EF
:1009C000012118F805009047206A401C2062281E6B
:1009D000A5F10105F3DC2046FFF78CFF2078000627
:1009E00002D50220BDE8F0870120FBE7116802680C
:1009F000006A530501D508700AE0D30501D50880C7
:100A000006E0130603D5C217C1E9000200E0086042
:100A10000120704770472DE9FF4F0C461E464FF0EE
:100A2000FF378BB0D2E90001DDF860800A908A467A
:100A3000C1F30A5505B93D46002108464FF00000B4
:100A4000BAF1000F00F4400005DA00EB80004FF42B
:100A5000400101EA50004FEA9059B9F1010F00DD61
:100A6000B9460A9850EA4A000ED044F61050A5F252
:100A7000FF3545432F14B8F1000F1ED07542291ED3
:100A80001EDDC9F100021CE0B8F1010F4FF00000BB
:100A900001D0302103E0F24305E02154401CB04274
:100AA000FBDB30460022002121540B99C1F808805D
:100AB000C1E900200FB0BDE8F08FBD1B6D1CDEE763
:100AC0004A4600DA694206A800F0A0FB06AB93E8AC
:100AD000070003AB83E8070050460A9900F067FC63
:100AE0008DE80700A0F500501F3800900398002DF6
:100AF0000ADD42F21F014A460844002303A903907D
:100B0000684600F0D0FE09E0A0F500504A461F38C4
:100B1000002303A90390684600F0DAFE8DE8070081
:100B20000004000C03D04FF0FF30410800E01046F5
:100B3000B8F1000F03D00022009215461EE0751E8A
:100B400005D400F0C7FA303262556D1EF9D5B346B0
:100B50000122084302D000227F1C04E020783028C4
:100B600001D100227F1E002A099784D01DE0112D9B
:100B700007DA00F0AFFA303262556D1C50EA01021C
:100B8000F5D1084302D00098C8B10EE00021681EDC
:100B900005E0235C625C63542254401E491C814280
:100BA000F7DBAB46A81B401E0990002004F80B00A1
:100BB0000B98099AC0F80880C0E9002B7AE7112643
:100BC0004FF0000857E72DE9F04F88460446D21D44
:100BD00022F0070191B0D1E90001CDE90A0104F04A
:100BE0007DFA02460B98C00F01D02D2007E0206847
:100BF000810701D52B2002E0202101EAC000032A51
:100C0000099001D0072A05DB03464146204600F043
:100C1000A7FA0BE12078800601D5E06900E0062004
:100C2000B8F1650F814606D0B8F1660F18D0B8F15B
:100C3000670F70D131E00020B9F1110F009001DB96
:100C4000112301E009F101030AAA01A90CA8FFF789
:100C5000E2FEDDE90C70002609F10105834647E05C
:100C600001204B4600904FF000470AAA01A90CA8AA
:100C7000FFF7D1FEDDE90DB00C995D46002610B9F5
:100C800009F101000D18B9EB050003D4C0F1FF36DE
:100C900009F10105A5EB09002BE0B9F1010F01DA1B
:100CA0004FF001090020B9F1110F0090484601DD15
:100CB000112300E003460AAA01A90CA8FFF7ABFE26
:100CC000DDE90C704D4600268346207800070AD4E3
:100CD000AB4500DA5D4601A8012D04DD411911F88C
:100CE000011C302907D04F4502DA17F1040F04DA4E
:100CF000012082460FE06D1EEEE7002F02DCED1BA7
:100D00003E4403E0781CA84200DD7D1CB81B00F1C6
:100D1000010A4FF000472078000703D4AA4501DB01
:100D20004FF0FF3A0021B7F1004F0DF143088DF865
:100D3000431024D002202B23002F01DA7F422D23E1
:100D40000A21021EA0F1010000DC5FB197FBF1FC5B
:100D500097FBF1F201FB1C7C17460CF1300C08F8F4
:100D600001CDEEE7A8F1010003702188090501D546
:100D7000452100E06521A0F1010800F8011C099857
:100D80000FA9A1EB0807FF1D00B10120411901EBDC
:100D9000EA70A1693844081A401EA0612078C00694
:100DA00002D42046FFF790FD099828B1D4E901212B
:100DB0009047206A401C20622078C00622D5204639
:100DC000FFF782FD1EE0002E04DBB34502DD01A823
:100DD000805D00E03020D4E901219047206A401C6A
:100DE0002062761CAAF101005FEA000A0AD100F035
:100DF0006DF9C0680168405CD4E901219047206A20
:100E0000401C2062281EA5F10105DCDC07E0D4E9C6
:100E1000012118F8010B9047206A401C2062381EFF
:100E2000A7F10107F3DC2046FFF764FD032011B0B2
:100E300041E6000001694A1C02610878704700B56C
:100E40008FB0CDE901310021059105497944CDE903
:100E5000031011466846FFF743FB0FB000BD0000CA
:100E6000E5FFFFFF0A6802F8010B0A60704710B542
:100E7000436913B1AFF3008001E0FFF781FA01206D
:100E800010BD127800F124010A7000224A7001227C
:100E9000EDE711684FF0FF32E9E70000074B70B54E
:100EA0000D467B44FFF7CBFF0446284600F020FAAE
:100EB00010B14FF0FF3070BD204670BD8743000079
:100EC0002DE9FF5F15468A460446DFF8AC80F844FA
:100ED0000027D8E900103E46CDE9001010E03AF8AE
:100EE00016106A4602A800F007FA411C07D02178C4
:100EF000890603D5E269391891420DD80744761C5A
:100F00002078800602D5E069B84205DDAE42E6DB16
:100F10003AF816000028E2D1A069C01BA061204663
:100F2000FFF7D2FCD8E90010CDE90010002017E04F
:100F30003AF818106A4602A800F0DEF9B0F1FF3F57
:100F400081460BD000250DF1080B05E0D4E9012105
:100F50001BF8050090476D1C4D45F7D308F10100C3
:100F6000B0428046E4DB206A384420622046FFF726
:100F7000C1FCBDE8FF9F0000EA5E00002DE9F041E2
:100F80008046D21D22F007020025D2E90002F52991
:100F900015A614D0011E72F1000106DA0023D0EB71
:100FA000030063EB020211A608E0D8F800108B07DB
:100FB00001D50FA602E0490701D50EA6012511466D
:100FC000002408F1240704E000F084F830323A5598
:100FD000641C50EA0102F7D12B46324621464046B6
:100FE000BDE8F041FFF7A9BC000000002D000000A3
:100FF0002B0000002000000030B4002100F1240488
:1010000008E002F00705D208303542EA4372DB08F7
:101010006554491C52EA0305F3D10468002310A269
:10102000250707D5A40600D421B1C46901230DA268
:10103000641EC46130BCFFF780BC10B50446214675
:101040001068FFF771FC02462046BDE810400023FF
:10105000D2E7D21D22F00701D1E90023CCE700003E
:10106000000000003000000010B5203AC0F00B80F6
:10107000B1E81850203AA0E81850B1E81850A0E89C
:101080001850BFF4F5AF5FEA027C24BFB1E81850F6
:10109000A0E8185044BF18C918C0BDE810405FEA66
:1010A000827C24BF51F8043B40F8043B08BF7047E2
:1010B000D20728BF31F8023B48BF11F8012B28BFE7
:1010C00020F8023B48BF00F8012B704700487047EA
:1010D000481E002030B5B0F10A024FEA900E71F1BF
:1010E00000034EEA817EB0EB0E0061EB91014FEA06
:1010F000101E4EEA017E10EB0E0041EB11114FEA7B
:10110000102E4EEA016E10EB0E0041EB11214FEA5A
:10111000104E4EEA014E10EB0E0041EB114140180B
:1011200041F100014FEAD00040EA41704FEAD1019D
:1011300010EB80054FEA810444EA907444EB01040B
:101140006D1944EB0404521BA3414FF0000348BF48
:101150000A3200D530BD401C41F1000130BD000015
:101160002DE9F0411F46044603260168072A01F4D1
:10117000006004DB08B116A505E016A503E008B180
:1011800015A500E015A521F010002060A069C01E83
:10119000A0610FB1401EA0612046FFF795FB4FB143
:1011A000D4E9012138469047206A401C2062C01CC7
:1011B000206206E0206AFAE7D4E9012115F8010B64
:1011C0009047761EF8D22046FFF794FBBDE8F081E9
:1011D0004E414E006E616E00494E4600696E6600DB
:1011E00010B5436913B1AFF3008001E0FFF768FE6B
:1011F000012010BD128800F1240182840022C284E3
:101200000122EDE711684FF0FF32E9E72DE9F047E1
:10121000814616468AB0354878440DC88DE80D00E1
:1012200032487844801C03AC0DC884E80D0041F6B8
:101230009B300844372190FBF1F290FBF1F5A5F1CA
:10124000800501FB12041B3C02D56442012000E032
:101250000020DFF898A080460027FA44AAF1BE0AD1
:101260000EE0E0070AD03246684607EB470101234B
:101270000AEB810100F02CFB8DE8070064107F1C55
:10128000002CEED1194F7F44AE3F19E0E80715D08E
:1012900007EB04100DF1180A90E80E008AE80E0022
:1012A000C068F04201D1981908903246012306A97E
:1012B00003A800F00DFB03AB83E807006D10641C6E
:1012C000002DE3D14FF0010332466946B8F1000F1B
:1012D00003A802D000F0E7FA01E000F0F9FAC9E94A
:1012E0000001C9F808200AB0BDE8F087245C0000BE
:1012F000007B00F08000704770B516460C4605462E
:1013000000F044F8036893F80101012806D0FF2C8F
:101310000FD8185D68B101202C7070BDD3F807019B
:101320003246214603F2071303442846BDE87040C5
:1013300018474FF0FF3070BD00487047281E00204E
:101340007546FFF7F9FFAE4605006946534620F0A3
:101350000700854618B020B5FEF7CAFFBDE820405B
:101360004FF000064FF000074FF000084FF0000B61
:1013700021F00701AC46ACE8C009ACE8C009ACE814
:10138000C009ACE8C0098D467047000010B5FFF7F2
:101390009DFE001D10BD00BFD942000010B50446DF
:1013A000AFF300802046BDE81040FEF78CBF5FEA37
:1013B000400C08BF91F0000F4FEA8C234FEAC12286
:1013C00043EA51514FEA1C5018BF00F5F0404FEA74
:1013D000300018BF41F000415FEA6C5C00F02980EA
:1013E000BCF1FF3F08BF40F080407047130C06BFC0
:1013F00012044FF0100C4FF0000C130E04BF120239
:101400000CF1080C130F04BF12010CF1040C930F24
:1014100004BF92000CF1020CD30F04BF52000CF178
:10142000010C11464FF00002A0F11F00A0EB0C00D0
:10143000704711F0004F08BF704731F000413FF492
:10144000D5AF0B0C06BF09044FF0100C4FF0000C89
:101450000B0E04BF09020CF1080C0B0F04BF0901AD
:101460000CF1040C8B0F04BF89000CF1020CCB0FA4
:1014700004BF49000CF1010CCCF12003A0EB0C00DF
:1014800022FA03F302FA0CF241EA030100F101002F
:10149000704720F07F4C80EA030023F07F47ACEBDD
:1014A000070303F57C5300F0004003F1FF032DE92F
:1014B00080494FEA154B09B44FEA144325EA0B4E15
:1014C00024EA03480FF2042606EB132749083E7866
:1014D0005FEA320203FB0667C7F5000707FB06F663
:1014E0004FEA54374FEAD64606F1020607FB066C70
:1014F000CCF1005C4FEA1C472CEA074C07FB06F4D2
:101500000CFB06F504EB15464FEA961634BF002097
:101510004FF000404FEAD13706FB07FC4FEA1C4C66
:101520000CFB0BF7D21B03FB0CF761EB07010CFB69
:101530000EF7B0EB074072EB17420CFB08F734BF15
:10154000A2EB0742B2EB074261EB17414FEA0C44B2
:101550004FEA910706FB07FC4FEA1C4C0CFB0BF70C
:10156000B0EBC74072EB573203FB0CF734BFA2EB72
:10157000C742B2EBC74261EB57310CFB0EF7B0EB41
:10158000C70072EB57720CFB08F734BFA2EBC7021F
:10159000B2EBC70261EB5771039F4FEA816141EAE9
:1015A000921104EBCC044FEAD1374FEA826206FB7A
:1015B00007FC42EA90124FEA80604FEA1C4C0CFB99
:1015C0000BF7D21B03FB0CF761EB07010CFB0EF7CB
:1015D000B0EB074072EB17420CFB08F734BFA2EBED
:1015E0000742B2EB074261EB17414FEA8C554FEAD5
:1015F000910704EB9C2406FB07FC4FEA1C4C0CFBF8
:101600000BF7B0EBC74072EB573203FB0CF734BF5C
:10161000A2EBC742B2EBC74261EB57310CFB0EF7AE
:10162000B0EBC70072EB57720CFB08F734BFA2EBAC
:10163000C702B2EBC70261EB577115EB4C254FEABD
:10164000816141EA92114FEA82624FEAD13742EA60
:10165000901206FB07FC44F100044FEA80604FEA59
:101660001C4C0CFB0BF7D21B03FB0CF761EB0701C7
:101670000CFB0EF7B0EB074072EB17420CFB08F7C0
:1016800034BFA2EB0742B2EB074261EB174115EB07
:101690001C154FEA813141EA92414FEA823242EA17
:1016A00090424FEA80304FEA0C7644F1000448EA59
:1016B00003434EEA0B484FF0000EB2EB080C71EBFF
:1016C000030724BF624639464EEB0E0E4FF0000B67
:1016D0000018524149414BEB0B0BB2EB080C71EB7C
:1016E00003077BF1000B24BF624639464EEB0E0E1A
:1016F0004FF0000B0018524149414BEB0B0BB2EB82
:10170000080C71EB03077BF1000B24BF62463946DE
:101710004EEB0E0E51EA020718BF46F0010616EB1B
:101720000E7655F1000254F1000103D5BDE88901A0
:10173000BDE80088BDE88901BDE80048B6195241FE
:1017400041EB0101A3F10103704780807F7E7D7C26
:101750007B7A7978777676757473727171706F6E43
:101760006E6D6C6C6B6A6A696868676666656464EE
:10177000636362616160605F5F5E5E5D5D5C5C5B78
:101780005B5A5A59595858575756565555555454E7
:10179000535352525251515050504F4F4F4E4E4D45
:1017A0004D4D4C4C4C4B4B4B4A4A4A494949484891
:1017B00048474747474646464545454444444443D1
:1017C00043434342424242414141002B9C4630D474
:1017D00077002BD01CB54FEA370703B44FF0100049
:1017E0004FF01001BAF1000F06D0BCF1000FDCBFC2
:1017F00040F0080040F008014FF000000FBCBDE8C9
:1018000010400BF1010BBBF1010F08BF5FEA170796
:1018100022BF12F1010211F101014FF0004143F129
:10182000000300F0004043EA00007047F9D3570876
:10183000D0E746EA064613F1400F4FEA16461FDD91
:1018400013F1200FDFBF16430A46002120335B420D
:10185000BED0C3F1200746EA064602FA07F74FEA70
:10186000164646EA0706C3F1200722FA03F201FAF8
:1018700007F721FA03F14FF0000342EA0702A7E756
:1018800046EA020646EA06464FEA164646EA0106D8
:10189000BCBF46EA0646360C4FF000034FF000028C
:1018A0004FF0000194E72DE9804C9A46934670B4BE
:1018B00091E8380007C831EA400C48BF34EA430CCD
:1018C00003D5FFF7E6FDFFF780FFF0BCBDE8008C15
:1018D0002DE9804C9A46934670B491E8380007C8C9
:1018E00010F0804F08BF13F0804F03D100F005F8CF
:1018F000FFF76BFFF0BCBDE8008C20F07F4780EA6B
:10190000030023F07F4C07EB0C03A3F57C5300F09E
:101910000040A3F1FE0392F0000F00F0B38095F0B9
:10192000000F00F077802DE901494FEA11404FEA9E
:10193000144621EA004800FB06FC24EA064708FB9F
:1019400006F607FB08F800FB07F718EB06484CEB18
:10195000164C4FEA124B18EB07484FEA15464CEB72
:10196000174022EA0B4E0BFB06FC25EA06470EFB4E
:1019700006F607FB0EFE0BFB07F71EEB064E4CEBC5
:10198000164C4FF000061EEB074E4CEB174B18EBB6
:101990000B0840F1000018EB0E0B58EB000840F16B
:1019A00000008F1A4FF000013CBFC943661B14BFF3
:1019B000B5EB040C00213CBFC943F61B4FEA1744AA
:1019C0004EEA8E0E27EA04454FEA1C4704FB0762E5
:1019D0002CEA074C05FB07F70CFB05F604FB0CFC97
:1019E00016EB074642EB174216EB0C4642EB1C4245
:1019F0001BEB060658EB0202414146EA9E0601D562
:101A0000BDE80189B619524141EB0101A3F101037F
:101A1000BDE801894FEA14454FEA114724EA05461B
:101A200021EA074C05FB07F406FB07F70CFB06F160
:101A300005FB0CFC11EB074144EB17444FEA12473E
:101A400011EB0C4144EB1C4422EA074C05FB07F266
:101A500006FB07F70CFB06F605FB0CFC16EB07462E
:101A600042EB174216EB0C4642EB1C456A1854F148
:101A7000000148BF7047B619524141EB0101A3F183
:101A80000103704795F0000F37D04FEA11424FEA3B
:101A9000144721EA024624EA074C02FB07F106FB41
:101AA00007F70CFB06F402FB0CFC14EB074441EBBC
:101AB00017414FEA154714EB0C4441EB1C4125EA52
:101AC000074C02FB07F506FB07F70CFB06F602FBCB
:101AD0000CFC16EB074645EB174516EB0C4645EBA1
:101AE0001C42121951F1000148BF7047B61952410A
:101AF00041EB0101A3F1010370474FEA14454FEA9E
:101B0000114724EA054621EA074C05FB07F106FBCD
:101B100007F70CFB06F24FF0000605FB0CFC12EB7E
:101B2000074241EB174112EB0C4251EB1C4148BFFD
:101B30007047921841EB0101A3F10103704721B1F5
:101B4000826842F00102826003E0826822F00102B2
:101B5000826070470021084A1168084A1140D0E9A4
:101B600000231A4383681A43C3681A431143044A83
:101B7000C2F804137047000004230140E030FCFF6A
:101B80000020014010B50121080201F0E1FD002113
:101B90004FF4807001F0DCFD10BD0146C86C80B2CE
:101BA00070470246002013680B400BB1012000E093
:101BB0000020704730B50246002000235068104CCA
:101BC00020400D790C6844EA052420435060906859
:101BD0000C4C2040D1E903542C438D682C434D79A3
:101BE00044EA450420439060D06A20F470000C7DE4
:101BF000641EE4B2234340EA0350D06230BD0000CB
:101C0000FFFEFFFCFDF7FFC0F0B504460D460020C7
:101C10000021092D11DDE068A5F10A0606EB460753
:101C2000072606FA07F18843A5F10A0606EB4606E1
:101C300003FA06F10843E0600CE0206905EB450774
:101C4000072606FA07F1884305EB450603FA06F175
:101C500008432061072A0FDA606B561E06EB8607E1
:101C60001F2606FA07F18843561E06EB860605FA7C
:101C700006F10843606322E00D2A0FDA206BD61FBD
:101C800006EB86071F2606FA07F18843D61F06EBE8
:101C9000860605FA06F10843206310E0E06AA2F127
:101CA0000D0606EB86071F2606FA07F18843A2F108
:101CB0000D0606EB860605FA06F10843E062F0BD64
:101CC000816841F080418160704700BFFEE70000FD
:101CD00070B505460C462246294615480068801C0A
:101CE000FEF71FFD2046E11704EB1161090A104AB7
:101CF00012681170E11704EB11610912A4EB0121C4
:101D00000B4A12685170002109480268A01C115446
:101D10000748006800F596700549086008460068A5
:101D200004490968884202D103480149086070BD2E
:101D30004800002050000020540C002010B5AE4890
:101D40000078012873D1AD480068AD490968884220
:101D500039D0AA480068807810280CD0A7480068BD
:101D60008078822803D1A7480078012803D0A648AC
:101D70000078012827D1A14800688078302809D14F
:101D80009E4800688178A1A0FEF7D8FAA9A0FEF7C6
:101D9000D5FA05E0994800688178A7A0FEF7CEFA49
:101DA0009648006803F000FB9448006800F59670C0
:101DB0009249086008460068A3490968884202D130
:101DC000A2488E490860A2480068A2490968884272
:101DD00079D0A1A0FEF7B2FA9D480068807820284B
:101DE0003CD19B480068407906282FD2DFE800F0FC
:101DF000030A111820279BA0FEF7A0FA01208149B1
:101E000008702AE09CA0FEF799FA00207A49087031
:101E100023E0A4A0FEF792FA0020774908701CE0A6
:101E2000ACA0FEF78BFA00207349087015E0BCE007
:101E3000B2A0FEF783FA00206F4908700DE0BAA047
:101E4000FEF77CFA00206C49087006E0BEA0FEF7A1
:101E500075FA00206849087000BF4BE07C480068B4
:101E6000807890281FD17A480068807910B10128C5
:101E700011D100E000BFBDA0FEF760FA0120624969
:101E800008700020BC49087002F0DCF801F05CFD2D
:101E900001F0AAFF06E0B9A0FEF750FA002056496B
:101EA000087000BF26E06A4800688078D02815D105
:101EB000B8A0FEF743FAB0480078012804D100200A
:101EC000AD49087016E024E0AB480078012811DD28
:101ED0000020A949087002F0B5F80BE05C480068E2
:101EE0008078302806D1AFA0FEF728FA584800685D
:101EF00000F004FF5648006800F5967054490860E9
:101F000008460068AC490968884202D1AB4850498C
:101F10000860AB480068AB49096888426BD0A848A4
:101F20000168891CA8A0FEF709FAAA480068FEF714
:101F3000D9FB04462246A7480168A1480068801CD6
:101F4000FEF7A4FB28B90120A349086001F04CFF6B
:101F500019E0A2480068FEF7C5FB044622469F48E8
:101F6000016897480068801CFEF790FB40B900208C
:101F70009949086000214FF0804002F05CF902E0CE
:101F800097A0FEF7DBF98E48006800F596708C4943
:101F900008600846006895490968884202D194485B
:101FA0008749086001F0D0FC25E092A0FEF7C6F951
:101FB0000021954802F03FF90021944802F03BF9D6
:101FC0000020934908604FF480619248FEF7EEFBD1
:101FD00002F07CFD78B990A0FEF7B0F90120064927
:101FE000087000208A4908604FF480618948FEF734
:101FF000DDFB00F01FFD10BD71000020400000203F
:102000003C0000207200002073000020B7A2CBCD5E
:10201000CAFDBEDD3A30782578A3ACB5A5C6ACBB09
:10202000FACAFDBEDDCDC6CBCDD6C1B7FECEF1C658
:10203000F70D0A000D0A0000B7A2CBCDCAFDBEDD28
:102040003A307825780D0A004400002078060020F8
:102050003400002030000020BDD3CAD5B5BDCAFD74
:10206000BEDD3A00434F4E4E454354B1A8CEC4B3F3
:10207000C9B9A60D0A000000C1ACBDD3D2D1BEDCE7
:10208000BEF8A3ACB2BBD6A7B3D6B5C4D0ADD2E927
:10209000B0E6B1BEA3ACD7BCB1B8D6D8C6F40D0A71
:1020A00000000000C1ACBDD3D2D1BEDCBEF8A3ACF1
:1020B000B2BBBACFB8F1B5C4BFCDBBA7B6CBB1EAFE
:1020C000CAB6B7FBA3ACD7BCB1B8D6D8C6F40D0A14
:1020D00000000000C1ACBDD3D2D1BEDCBEF8A3ACC1
:1020E000B7FECEF1B6CBB2BBBFC9D3C3A3ACD7BC8E
:1020F000B1B8D6D8C6F40D0A00000000C1ACBDD3FB
:10210000D2D1BEDCBEF8A3ACCEDED0A7B5C4D3C35B
:10211000BBA7C3FBBBF2C3DCC2EBA3ACD7BCB1B85B
:10212000D6D8C6F40D0A0000C1ACBDD3D2D1BEDCF6
:10213000BEF8A3ACCEB4CADAC8A8A3ACD7BCB1B8B9
:10214000D6D8C6F40D0A0000C1ACBDD3D2D1BEDCD6
:10215000BEF8A3ACCEB4D6AAD7B4CCACA3ACD7BC93
:10216000B1B8D6D8C6F40D0A00000000B6A9D4C490
:10217000B3C9B9A60D0A000070000020B6A9D4C4E6
:10218000CAA7B0DCA3ACD7BCB1B8D6D8C6F40D0A88
:102190000000000050494E47B1A8CEC4BBD8B8B427
:1021A0000D0A0000B7FECEF1C6F7B5C8BCB630CDFB
:1021B000C6CBCD0D0A000000380000209C00002096
:1021C0004C00002048000020C3FCC1EE3A25730DEE
:1021D0000A00000008000020140000200C0000206D
:1021E000CEB4D6AAD6B8C1EE0D0A00005000002029
:1021F000540C0020D0E8D2AAC1ACBDD3B7FECEF1BA
:10220000C6F70D0A0000000000080040000400406E
:102210007800002060150020BDA8C1A2544350C121
:10222000ACBDD3B3C9B9A60D0A0000001CB501218D
:10223000102001F04DFA4FF40070009001208DF84D
:10224000040000208DF8060003208DF80500694683
:10225000044800F032F84FF40071024800F098F89A
:102260001CBD0000001002401CB54FF4007000902F
:1022700000208DF8040001208DF8070002208DF861
:1022800005006946014800F018F81CBD0010024026
:102290001CB54FF40070009001208DF80400002060
:1022A0008DF8060002208DF805006946014800F00F
:1022B00004F81CBD001002407047F0B50A4600212A
:1022C0000023002400BF3DE0012505FA01F3156855
:1022D00005EA03049C4234D105684F000326BE4042
:1022E000B543056015794E00B54006683543056075
:1022F0001579012D02D01579022D16D185684F0070
:102300000326BE40B543856055794E00B5408668CA
:1023100035438560456801268E40B5434560456874
:1023200096798E40B6B235434560C5684F000326A6
:10233000BE40B543C560D5794E00B540C66835434B
:10234000C560491C1029BFD3F0BDF0B5002300249F
:102350004D07ED0E02FA05F3CE1000F1200555F8F9
:1023600026504E07F70E0F26BE40B543CF1000F1A2
:10237000200646F82750CE1000F1200555F82650CB
:1023800045EA0304CE1000F1200545F82640F0BDD3
:10239000018370470AB1018300E041837047000068
:1023A00010B50623012204210848FFF72DFC074839
:1023B000FFF786FC00BF02210448FFF7F2FB00286C
:1023C000F9D00248FFF7E9FB10BD000000220140F0
:1023D00070B504460025002607E0FFF7E1FF05443D
:1023E000052002F0BBFE701CC6B2A642F5DBB5FBB1
:1023F000F4F080B270BD000070B52DED068B0024A6
:102400000025012001F098FB102001F095FBB4207D
:1024100002F0A4FE00F0C8FD00BF03E012480478FB
:10242000681CC5B2032DF9DB0F48407800EB04248B
:1024300000EE104AB8EEC00A10EE100A03F08CFD50
:1024400041EC1A0B9FED090B53EC102B03F000FA33
:1024500041EC190B03F022F908EE100AB0EE480A1D
:10246000BDEC068B70BD00002800002033333333F1
:102470003333F33F00BFFEE71CB50121402001F0DC
:1024800027F9C020009001208DF8040002208DF86B
:10249000050000208DF8060001208DF80700694630
:1024A0000448FFF70AFF0120034908600349C1F807
:1024B0009C021CBD001802409802434200004342A7
:1024C00070B50025002000F027F8002010490860B2
:1024D000002419E0052002F05DFE01200C4908608F
:1024E000022002F057FE0B48D0F81C0228B1C4F1BC
:1024F0000701012088402843C5B2032002F04AFEAC
:10250000002003490860641C082CE3DB284670BDEA
:1025100098024342000043421CB5044680200090CC
:102520008DF8044002208DF8050000208DF806008B
:1025300001208DF8070069460148FFF7BEFE1CBD6B
:102540000018024070B505460120FFF7E5FF0020A6
:1025500010490860002419E0022002F01BFEC4F1BB
:10256000070045FA00F000F001000A49091D086063
:10257000032002F00FFE01200749C1F89802052050
:1025800002F008FE002003490860641C082CE3DB0D
:1025900070BD0000980243420000434210B5012084
:1025A000FFF7BAFF0120094908600949C1F89802FC
:1025B0001E2002F0EFFD002004490860052002F013
:1025C000E9FD00200249C1F8980210BD9C02434277
:1025D0000000434210B50120FFF79EFF002009498B
:1025E00008600949C1F89C020A2002F0D3FD0120CD
:1025F00004490860052002F0CDFD01200249C1F820
:102600009C0210BD980243420000434210B50446AC
:102610000120FFF781FF00200A490860022002F034
:10262000B9FD0948C0F89C42032002F0B3FD012027
:1026300004490860052002F0ADFD00200249C1F800
:10264000980210BD980243420000434210B5012495
:102650000020FFF761FF00200C490860052002F010
:1026600099FD01200A49C1F89802022002F092FD6A
:1026700006487C38006800B100E00024032002F026
:1026800089FD002001490860204610BD98024342A0
:10269000000043421CB50121402001F019F8302010
:1026A000009001208DF8040002208DF80500002024
:1026B0008DF8060001208DF8070069460448FFF7F1
:1026C000FCFD0120034908600349C1F894021CBDC8
:1026D0000018024090024342000043421CB50446E9
:1026E000202000908DF8044002208DF80500002085
:1026F0008DF8060001208DF8070069460148FFF7B4
:10270000DCFD1CBD0018024070B505460120FFF736
:10271000E5FF002010490860002419E0022002F0C3
:1027200039FDC4F1070045FA00F000F001000A4944
:10273000091D0860032002F02DFD01200749C1F8A2
:102740009002052002F026FD002003490860641C69
:10275000082CE3DB70BD00009002434200004342BE
:1027600010B50120FFF7BAFF0120094908600949A7
:10277000C1F890021E2002F00DFD002004490860FF
:10278000052002F007FD00200249C1F8900210BDAB
:10279000940243420000434210B50120FFF79EFF20
:1027A0000020094908600949C1F894020A2002F092
:1027B000F1FC012004490860052002F0EBFC012037
:1027C0000249C1F8940210BD900243420000434206
:1027D00010B501240020FFF781FF00200C4908609C
:1027E000052002F0D7FC01200A49C1F8900202201E
:1027F00002F0D0FC06487C38006800B100E00024FC
:10280000032002F0C7FC002001490860204610BDEB
:10281000900243420000434210B580212448FDF756
:10282000C5FF24A226A12248FDF794FD2048FDF70C
:1028300059FF2449086080212348FDF7B7FF23A2F0
:102840001FA12148FDF786FD1F48FDF74BFF2149D9
:10285000086080212048FDF7A9FF20A218A11E488A
:10286000FDF778FD1C48FDF73DFF1E4908608021FB
:102870001D48FDF79BFF1DA211A11B48FDF76AFD36
:1028800041F272701D4908600846174902681CA091
:10289000FDF754FD06491FA0FDF750FD0A4921A090
:1028A000FDF74CFD0C4923A0FDF748FD10BD0000CD
:1028B00030120020363734393831333032000000DE
:1028C0002573000054000020B01200203430303650
:1028D00038300000580000203013002031323334EB
:1028E000353600005C000020B01300203138332E54
:1028F0003233302E34302E33390000006000002097
:10290000B7FE20CEF120C6F7A3BA25733A25640D91
:102910000A000000BFCDBBA7B6CB4944A3BA2573BC
:102920000D0A0000D3C320BBA720C3FBA3BA2573A5
:102930000D0A0000C3DC20202020C2EBA3BA2573BF
:102940000D0A00001CB50121102000F0C1FE01217C
:10295000202000F0BDFE4FF48070009002208DF822
:10296000050000208DF8040069460D48FFF7A5FC1E
:102970004FF48060009002208DF8050001208DF852
:10298000040000208DF8060001208DF8070069463C
:102990000448FFF792FC0120034908601CBD0000B9
:1029A0000010024000140240A882424200B58DB0DF
:1029B0000121202000F08CFE0121880200F0B8FEE9
:1029C0004020019003208DF8080000208DF80B00B6
:1029D0008DF80A0003208DF8090001A91348FFF7BC
:1029E0006CFCFFF7CFF800200B9009904FF44030BB
:1029F0000A904FF470600C9009A8FFF7ABF8002024
:102A00008DF811000790069001208DF8200000201D
:102A100003908DF8100003A90548FFF7CBF80121BA
:102A20000348FFF78CF80DB000BD00000014024011
:102A30000022014010B51648164908600846006893
:102A40001549086015481649086016481649086077
:102A50000846006815490860154816490860164878
:102A60001649086008460068154908601548164967
:102A7000086000F037F8002114A000F047FA0020A9
:102A800015490870154908701549087010BD0000F7
:102A90009C00002030000020340000204C05002065
:102AA00038000020780600203C0000204000002074
:102AB000280B002044000020540C00204800002077
:102AC0004C0000200411002050000020746F706939
:102AD000635F6F6E650000007300002072000020CD
:102AE0007000002070B501207A4908600A207A49F8
:102AF00008607A480068001D794909680844801C0C
:102B0000784909680844784908607348006809688A
:102B1000441810207549087000BF2046E11704EBE7
:102B20005161C911A4EBC115E11704EB5161CC113E
:102B3000002C01DD45F080056C48664A126885541A
:102B400064480068401C63490860002CE5DC0021F3
:102B5000664A60480068115404215E480068401CC1
:102B600011544D215B480068801C11545121594873
:102B70000068C01C1154542156480068001D1154AF
:102B800054480068401D1154042152480068801DBB
:102B90001154C2214F480068C01D115400214D48F6
:102BA00000680830115464214A4800680930115403
:102BB0004A490868C11700EB1161C1F307224B4B6A
:102BC000444909680A315A5444490868C11700EB5E
:102BD00011610912A0EB0121CAB23E4909680B310B
:102BE0005A541A463B4909680C3150183B490A6847
:102BF0003F49FDF796FD3A490868C11700EB11619E
:102C0000C1F30722334909680C31344B1B6819445E
:102C1000364B5A5432490868C11700EB116109124A
:102C2000A0EB0121CAB22B4909680D312B4B1B685F
:102C300019442E4B5A54274909680E31274A126805
:102C400011441A46881826490A682A49FDF769FD81
:102C500024490868C11700EB1161C1F307221D491F
:102C600009680E311D4B1B6819441D4B1B68194424
:102C70001E4B5A541B490868C11700EB1161091219
:102C8000A0EB0121CAB2134909680F31134B1B682D
:102C90001944134B1B681944144B5A540D490968C5
:102CA00010310E4A126811440D4A126811441A4636
:102CB00088180C490A681049FDF733FD054800687B
:102CC000054A12681044084A12688118074801F042
:102CD00091FC70BD640000206800002054000020BA
:102CE000580000205C0000206C0000203014002000
:102CF00030120020B0120020301300202DE9F04FD8
:102D0000D1B0804698F8011098F8000001EB00203F
:102D1000509008F10207002081460546064683468A
:102D200001244FF0010A00BF0BF1010B00BF28196D
:102D300017F8009009F07F0000FB0A664FEACA1AF4
:102D4000641C09F080000028F1D1301905443119C4
:102D50005098401A50900124A2460026509800280E
:102D6000E2D1594620A0FDF7E9FA002005460646C3
:102D700000BF00BF4C9030E000BF281917F800904A
:102D800009F07F0000FB0A664FEACA1A641C09F0CA
:102D900080000028F1D1601C2844395C6019385C3F
:102DA00001EB0020801C4F904F98301A4E9029194B
:102DB0004F9808444D904D98391801A84E9AFDF748
:102DC000B0FC01A84E99FEF783FF30190544012499
:102DD000A24600264C98401C4C904C985845CBDBA2
:102DE00051B0BDE8F08F0000B1BEB4CEBDD3CAD59E
:102DF000C1CB2564B8F6CDC6CBCDCAFDBEDD0D0A6C
:102E00000000000010B5C020044908700020487080
:102E10000221024801F0EEFB10BD0000301400203A
:102E20002DE9F047054688461646012033490860DB
:102E30002846FDF757FC801C314908603148066080
:102E4000084600682F490968441830202E49087048
:102E500000BF2046E11704EB5161C911A4EBC11773
:102E6000E11704EB5161CC11002C01DD47F0800724
:102E70002548224A1268875420480068401C1F4990
:102E80000860002CE5DC2846FDF72CFCC0F3072188
:102E90001D4A1A48006811542846FDF723FCC1B2A8
:102EA000194A16480068401C11542846FDF71AFCC0
:102EB0008146154A11490968891C50184A46294615
:102EC000FDF72FFC2846FDF70DFC0C490968891C0D
:102ED00008440D4900EB0109324641464846FDF7DA
:102EE00020FC06480068064A12681044054A126829
:102EF0008118054801F07EFBBDE8F08764000020E2
:102F0000680000206C0000203014002070B50446DA
:102F10000D4602201F4908601F4908602046FDF742
:102F2000E1FBC01C1D49086082201D4908701A4839
:102F300000781A49097808441949487000208870B7
:102F40000120C8702046FDF7CDFB000A1449087126
:102F50002046FDF7C7FB124948712046FDF7C2FB2A
:102F60000646324621460E48801DFDF7DAFB204614
:102F7000FDF7B8FB801D0A490D5406480068064A53
:102F800012681044054A12688118054801F032FBA6
:102F900070BD000064000020680000206C0000206C
:102FA0003014002000BFFEE710B5FFF7F7FA472006
:102FB000FFF7C8FAFFF74AFBFFF782FA08490870E3
:102FC000FFF744FBFFF77CFA054948700120FFF743
:102FD0001DFBFFF7FFFA052002F0C0F810BD00004E
:102FE000280000207047000070B5002100230F2248
:102FF000C4781CB3174C246804F4E064C4F5E0649E
:10300000C4F30721C1F10404E3B20A4144789C40AF
:10301000E1B28478144021430C07210E0E4C057850
:103020006155047804F01F050124AC4005786D114A
:10303000AD0005F1E025C5F8004109E0047804F091
:103040001F050124AC40054D0678761145F8264051
:1030500070BD00000CED00E000E400E080E100E065
:1030600002490143024A1160704700000000FA055E
:103070000CED00E070B5002419E004F1B001C8B215
:10308000002100F008FB0021084600F004FB0021AD
:10309000102000F000FB002505E00121002000F0D9
:1030A000FAFA681CC5B2802DF7DB601CC4B2082C8C
:1030B000E3DB70BD2DE9F05F8046894614460A9E29
:1030C0000027BA46E6E1307820283DDB30787E28BC
:1030D0003ADC30782038C7B24946404600F0C6FA9C
:1030E000002508E0EE4901EB0711485D012100F0E1
:1030F000D2FA681CC5B204EBD471B5EB610FF1DBF9
:1031000009F10100C1B2404600F0B0FA00250DE01F
:10311000A34604EBDB7105EB6101E14A02EB071208
:10312000505C012100F0B7FA681CC5B204EBD47101
:10313000B5EB610FECDB761C204604EBD07108EB9D
:10314000610101F0FF08A5E14946404600F08EFA12
:103150007078317800EB01201FFA80FA50464CF26B
:10316000BF71AAEB01028A4573D076DC4BF6A6123A
:10317000A0EB020190426ED03ADC4BF2AB42A0EBE6
:103180000201904268D01DDC4BF2B812A0EB0201A4
:1031900090427DD00CDCA0F52040A0F5F370002813
:1031A00077D0A0F6F660002874D0C72873D11DE14F
:1031B000352971D0B1F58B7F6FD0A1F21121002993
:1031C000F4D1CEE040F2F722881A914266D008DCB2
:1031D0003B297BD0A1F21D21002978D03629E5D1E9
:1031E00016E15C2874D0A0F23D100028DED104E185
:1031F00040F65302881A91426BD016DC40F23752E7
:10320000A1EB020091427BD008DC3C2979D0572900
:1032100078D0A1F22D410029C8D1AEE0FB2872D0B0
:10322000A0F2CF200028C1D1A5E040F2E142811AEE
:10323000904269D008DCEE2867D0A0F2F120002887
:1032400079D0BE28B2D1F5E01D2975D01E29ADD1A7
:10325000ECE0F5E001E088E0A7E040F23270111AFE
:1032600082426AD03BDC40F23E31A2EB01008A424E
:1032700073D01DDC40F22921A2EB01008A4269D003
:1032800011DCB2F58B7F6ED0B2F59F7F6CD006E07B
:103290009EE0B4E0A8E0D5E098E090E067E0B2F509
:1032A000047F8DD173E0BF286FD0C22888D14EE053
:1032B00040F2FB22811A904268D00BDCC7286ED006
:1032C000D02856D0B0F5F47F89D1B1E090E042E04B
:1032D00055E0A5E0CA2938D0ED2987D19EE040F21B
:1032E000D152881A91426ED018DCB1F5EA7F75D0C0
:1032F0000CDCB12974D0D1294BD0ED298CD14AE016
:103300002DE099E077E056E053E065E0B1F5EB7F22
:1033100077D0A1F2CA31002985D177E0B0F5017FDD
:103320004BD00BDCA0F2131000286ED0E02834D074
:10333000EE2887D137E075E025E022E0A0F21A20E0
:1033400070B3B0F5807F7DD13BE000277BE00127A3
:1033500079E002E025E0022775E0032773E0042707
:1033600071E005276FE04EE054E006276BE0072789
:1033700069E0082767E0092765E00A2763E00B2773
:1033800061E00C275FE00D275DE02BE022E00E27D7
:1033900059E00F2757E0102755E0112753E03BE095
:1033A00005E012274FE013274DE014274BE01527C7
:1033B00049E0162747E0172745E0182743E019277B
:1033C00041E01A273FE02FE008E009E01B273AE040
:1033D0001C2738E01D2736E01E2734E01F2732E087
:1033E000202730E021272EE022272CE023272AE087
:1033F000242728E005E0252725E0262723E02727A6
:1034000021E028271FE02A271DE017E02B271AE0DC
:103410002C2718E02D2716E02E2714E02F2712E086
:10342000302710E031270EE032270CE034270AE085
:10343000352708E0362706E0372704E0382702E082
:10344000392700E000BF00BF002508E0154901EB67
:103450004711485D012100F01EF9681CC5B2A54264
:10346000F4DB09F10100C1B2404600F0FFF800258D
:1034700009E00C4901EB47112A19885C012100F091
:103480000AF9681CC5B2A542F3DBB61C08EB0400C0
:1034900000F0FF08307800287FF415AEBDE8F09FFB
:1034A000526000084266000810B5FFF7F3F84FF4C9
:1034B000FA7001F053FE0021AE2000F0ECF800217C
:1034C000084600F0E8F80021102000F0E4F80021A0
:1034D000402000F0E0F80021812000F0DCF800211D
:1034E000CF2000F0D8F80021A12000F0D4F800216E
:1034F000C82000F0D0F80021A62000F0CCF8002170
:10350000A82000F0C8F800213F2000F0C4F80021F6
:10351000D32000F0C0F80021084600F0BCF80021DC
:10352000D52000F0B8F80021802000F0B4F8002188
:10353000D92000F0B0F80021F12000F0ACF8002113
:10354000DA2000F0A8F80021122000F0A4F80021F1
:10355000DB2000F0A0F80021402000F09CF80021C2
:10356000202000F098F80021022000F094F80021BB
:103570008D2000F090F80021142000F08CF800213C
:10358000A42000F088F80021A62000F084F8002193
:10359000AF2000F080F8FFF76DFD0021084600F035
:1035A00065F810BD00B52DED028B95B020488278EE
:1035B00020A110A8FCF7CEFE1D48027820A10BA880
:1035C000FCF7C8FE2148028821A106A8FCF7C2FE2C
:1035D0002248006802F0C0FC41EC180B53EC182B99
:1035E0001FA101A8FCF7B6FE10A810231A4600215F
:1035F00000900846FFF75EFD0BA810231A46022133
:1036000000900020FFF756FD06A810231A4604215B
:1036100000900020FFF74EFD01A810231A46062156
:1036200000900020FFF746FD15B0BDEC028B00BDF9
:1036300022000020CEC2B6C83A2564A1E6000000F0
:10364000CAAAB6C83A25642525000000200000203B
:10365000C6F8CCE5C5A8B6C83A2564002C00002001
:10366000B9E2C7BF3A252E326600000070B50446A5
:103670000D4605F1B001C8B2002100F00CF8102190
:1036800041EA1410002100F006F804F00F000021B8
:1036900000F001F870BD70B505460C46FFF760F804
:1036A0007820FFF731F8FFF793F81CB14020FFF7BF
:1036B0002BF802E00020FFF727F8FFF789F82846EB
:1036C000FFF722F8FFF784F8FFF766F870BD704740
:1036D00029B1064A12680243044B1A6004E0034A07
:1036E00012688243014B1A60704700003038024074
:1036F00029B1064A12680243044B1A6004E0034AE7
:1037000012688243014B1A60704700004038024043
:1037100029B1064A12680243044B1A6004E0034AC6
:1037200012688243014B1A60704700002038024043
:1037300029B1064A12680243044B1A6004E0034AA6
:1037400012688243014B1A607047000044380240FF
:1037500029B1064A12680243044B1A6004E0034A86
:1037600012688243014B1A607047000024380240FF
:10377000F0B5002100220024022500260223324F4A
:103780003F6807F00C0121B1042905D0082937D181
:1037900005E02E4F076036E02D4F076033E02A4FDB
:1037A0003F1F3F68C7F38056274F3F1F3F6807F012
:1037B0003F036EB1264FB7FBF3F7DFF88CC0ACF1D7
:1037C000040CDCF800C0CCF3881C07FB0CF40CE004
:1037D0001E4FB7FBF3F7DFF870C0ACF1040CDCF858
:1037E00000C0CCF3881C07FB0CF4174F3F1F3F6849
:1037F000C7F301477F1C7D00B4FBF5F7076002E0CB
:10380000124F076000BF00BF0F4F3F6807F0F00185
:103810000909104F7A5C0768D74047600A4F3F6834
:1038200007F4E051890A0B4F7A5C4768D7408760FC
:10383000054F3F6807F46041490B064F7A5C4768C3
:10384000D740C760F0BD0000083802400024F400F3
:1038500000127A008A00002070B5002500241EE0C6
:1038600000BF114800680028FBD0282001F092FC1E
:103870000D48006801280BD100BF0B4800680128E3
:10388000FBD0C4F1070101208840C0B2054304E029
:10389000C4F10701012088408543601CC4B2082C94
:1038A000DEDB284670BD00002402424210B504460B
:1038B000FEF7EEFC002021490860122001F04EFCCA
:1038C00001201F49C1F8A4021E2001F063FCFEF78D
:1038D000CBFC1A488038006868BB00BF17488038A6
:1038E00000680028FAD000BF14488038006801281A
:1038F000FAD0FFF7B1FF2070FFF7AEFF6070FFF75F
:10390000ABFFA070FFF7A8FFE070FFF7A5FF2071E5
:10391000FEF7BEFC01200949086020786178084460
:10392000A1780844E17808442179884201D1012036
:1039300010BD0020FCE70020FAE70000A40242428C
:10394000000042427047000010B5AAB034211CA804
:10395000FCF74EFF642103A8FCF74AFF00202990E2
:10396000174818A102681CA8FCF7F4FC03208DF886
:10397000A40000208DF8A5001CA8FCF7B3FEC0B27F
:103980008DF8A6001CA99DF8A600CDE900019DF8C0
:10399000A5309DF8A42010A103A8FCF7DBFC1CA80F
:1039A000FCF7A0FEC41C0DF10F010EA0FCF7C6FC35
:1039B000224603A90DA0FFF733FA2AB010BD00007C
:1039C000180000207B224C45445354415455532247
:1039D0003A222573227D0000256325632563257324
:1039E0000000000025730D0A000000002464700030
:1039F00010B540F2CF2140F2CF7000F0F7F840F25E
:103A0000CF2140F2CF7000F04FF940F2CF2140F2C9
:103A1000CF7000F099F940F29971094800F0A1FDCA
:103A200040F29971064800F09EFD40F299710548F8
:103A300000F097FD40F29971034800F092FD10BD2F
:103A400000180040001C0040002000400CB5002081
:103A5000019000903448006840F48030324908609A
:103A600000BF3148006800F4003000900198401C0D
:103A70000190009818B90198B0F5A04FF1D12A48EB
:103A8000006800F4003010B10120009001E0002037
:103A900000900098012846D123484030006840F04B
:103AA00080502149403108602048006840F440407F
:103AB0001E4908601C48083000681B49083108602E
:103AC0000846006840F4004008600846006840F47A
:103AD000A05008601648091F0860081F006840F0E1
:103AE0008070091F086000BF0F48006800F0007078
:103AF0000028F9D040F205700E4908600A480830E5
:103B0000006820F003000849083108600846006892
:103B100040F00200086000BF03480830006800F071
:103B20000C000828F8D10CBD00380240007000409D
:103B300008544007003C024010B50446FEF72EFD35
:103B40004620FEF7FFFCFEF781FD2046FEF7FAFC5B
:103B5000FEF77CFDFEF73EFD10BD042808D14FF0B6
:103B6000E021096941F004014FF0E022116107E012
:103B70004FF0E021096921F004014FF0E0221161CA
:103B80007047704710B51548006840F4700013493D
:103B900008601348006840F00100114908600020E7
:103BA0000F49083108600E4800680E4908400C496A
:103BB00008600D48091D0860081F006820F4802077
:103BC000091F0860002006490C310860FFF73EFF1E
:103BD0004FF0006001498039086010BD88ED00E0B9
:103BE00000380240FFFFF6FE1030002430B58BB0E5
:103BF00004460D4601214020FFF77AFD01210220F5
:103C0000FFF766FD09220E212548FEF79EFB0922DB
:103C10000F212348FEF799FB4FF440400990022002
:103C20008DF8280003208DF8290000208DF82A0047
:103C300001208DF82B0009A91948FEF73EFBA8B218
:103C4000ADF818000020ADF81A000794ADF8200078
:103C500006A9144800F08CFC7020ADF80400012087
:103C6000ADF806000020ADF8100001A90D4800F0E5
:103C7000D1FB08210B4800F00BFC01A9094800F01A
:103C800011FC0821074800F05FFC0121054800F005
:103C9000C3FA0121034800F0CEFA0BB030BD00009A
:103CA000000402400018004030B58BB004460D46B9
:103CB00001218020FFF71CFD01212020FFF708FDD6
:103CC000092208211E48FEF740FB4FF4807009903E
:103CD00002208DF8280003208DF8290000208DF89F
:103CE0002A0001208DF82B0009A91548FEF7E5FAF6
:103CF000A8B2ADF818000020ADF81A000794ADF88E
:103D0000200006A90F4800F033FC7020ADF8040035
:103D10000120ADF806000020ADF8100001A9094807
:103D200000F078FB0821074800F0B2FB01210548AC
:103D300000F072FA0121034800F07DFA0BB030BDAB
:103D400000140240001C004030B58BB004460D4604
:103D500001210802FFF7CCFC01212020FFF7B8FC6D
:103D6000092211461E48FEF7F0FA4FF40070099040
:103D700002208DF8280003208DF8290000208DF8FE
:103D80002A0001208DF82B0009A91548FEF795FAA5
:103D9000A8B2ADF818000020ADF81A000794ADF8ED
:103DA000200006A90F4800F0E3FB7020ADF80400E6
:103DB0000120ADF806000020ADF8100001A9094867
:103DC00000F028FB0821074800F062FB01210548AC
:103DD00000F022FA0121034800F02DFA0BB030BDAB
:103DE00000140240002000401FB501210846FFF7E3
:103DF0007FFC4FF0804000F02BFA40F69F7002905D
:103E000048F69F40ADF804000020ADF80600ADF87C
:103E10000C0001A94FF0804000F0AAFB01218807A7
:103E200000F006FA01221146900700F0EAFA01219B
:103E3000880700F000FA1C208DF8000007208DF89C
:103E4000010001208DF802008DF803006846FFF79D
:103E5000CBF81FBD10B5AAB000240121880700F0DF
:103E6000BFFA00287ED04348FFF720FD01283AD151
:103E700034211CA8FCF7BCFC642103A8FCF7B8FCA7
:103E8000002029903B48037882783BA11CA8FCF7CE
:103E900061FA03208DF8A40000208DF8A5001CA86D
:103EA000FCF720FCC0B28DF8A6001CA99DF8A60066
:103EB000CDE900019DF8A5309DF8A42038A103A804
:103EC000FCF748FA39A0FCF739FA0DF10F0138A0D8
:103ED000FCF734FA1CA8FCF705FCC41C224603A915
:103EE00035A0FEF79DFF01F017FA012839D13421E2
:103EF0001CA8FCF77DFC642103A8FCF779FC0020DA
:103F000029902E4802882EA11CA8FCF723FA032032
:103F10008DF8A40000208DF8A5001CA8FCF7E2FB9A
:103F2000C0B28DF8A6001CA99DF8A600CDE900013D
:103F30009DF8A5309DF8A42019A103A8FCF70AFA62
:103F40001AA0FCF7FBF90DF10F0119A0FCF7F6F927
:103F50001CA8FCF7C7FBC41C224603A916A0FEF749
:103F60005FFF00E003E00121880700F061F92AB05B
:103F700010BD0000220000207B2274656D70657208
:103F80006174757265223A222564222C2268756D4F
:103F90006964697479223A222564227D0000000058
:103FA0002563256325632573000000000D0A0000CA
:103FB00025730D0A0000000024647000200000201A
:103FC0007B226D713264617461223A222564227D04
:103FD000000000001FB501210220FFF789FB1848EF
:103FE00000F036F944F61F60029041F61F40ADF82C
:103FF00004000020ADF80600ADF80C0001A910483F
:1040000000F0B6FA01210E4800F012F90122114623
:104010000B4800F0F6F90121094800F00CF91D20C9
:104020008DF8000006208DF8010000208DF80200B8
:1040300001208DF803006846FEF7D6FF1FBD000083
:10404000000400401FB501210220FFF751FB174873
:1040500000F0FEF84EF65F20029048F69F40ADF863
:1040600004000020ADF80600ADF80C0001A90F48CF
:1040700000F07EFA01210D4800F0DAF80122114625
:104080000A4800F0BEF90121084800F0D4F81D20CC
:104090008DF8000006208DF8010001208DF8020047
:1040A0008DF803006846FEF79FFF1FBD0004004027
:1040B00010B50121164800F093F938B3154800787F
:1040C000062819D2DFE800F003060B0C0D10FEF7EE
:1040D00099FE11E0FFF77EFFFEF794FE0CE000BFB3
:1040E00000BFFEF78FFE07E000200B49087000219B
:1040F000074800F0A0F800BF00BF06480078401C49
:10410000044908700121024800F092F810BD000037
:1041100000040040700000207100002010B5012153
:104120001D4800F05DF9002834D01C481C49026885
:104130001C480068801CFCF7F4FA18480088000A44
:1041400018490968087015480078164909684870C8
:104150001448006800F59670124908600846006827
:1041600011490968884202D110480E4908600020B0
:104170000A49086000210E4800F0F7F900210648BE
:1041800000F059F80021044800F0EFF9012102483D
:1041900000F04EF810BD000000080040780000203C
:1041A0006015002030000020380000209C00002016
:1041B000000400407FB505460C4601210420FFF7AE
:1041C00097FA0295ADF804400020ADF80600ADF86E
:1041D0000C0001A90F4800F0CBF901210D4800F0B7
:1041E00027F8012211460B4800F00BF9002109487D
:1041F00000F021F81E208DF8000009208DF8010044
:1042000000208DF8020001208DF803006846FEF7BB
:10421000EBFE7FBD0008004021B1028842F0800221
:10422000028004E002884FF67F731A4002807047D4
:10423000CA430282704721B1028842F00102028023
:1042400004E002884FF6FE731A40028070470000B7
:1042500010B504465548844208D101210846FFF7AD
:1042600077FA00210120FFF773FA9DE0B4F1804F47
:1042700008D101210846FFF74BFA00210120FFF782
:1042800047FA91E04A48844208D101210220FFF711
:104290003FFA00210220FFF73BFA85E045488442BF
:1042A00008D101210420FFF733FA00210420FFF791
:1042B0002FFA79E04048844208D101210820FFF715
:1042C00027FA00210820FFF723FA6DE03B488442DB
:1042D00008D101211020FFF71BFA00211020FFF761
:1042E00017FA61E03648844208D101212020FFF707
:1042F0000FFA00212020FFF70BFA55E031488442E5
:1043000008D101210220FFF723FA00210220FFF744
:104310001FFA49E02C48844209D101210804FFF723
:1043200017FA00214FF48030FFF712FA3CE02748DB
:10433000844209D101214804FFF70AFA00214FF411
:104340000030FFF705FA2FE02148844209D101210E
:104350008804FFF7FDF900214FF48020FFF7F8F9FA
:1043600022E01C48844208D101214020FFF7D0F907
:1043700000214020FFF7CCF916E01748844208D10D
:1043800001218020FFF7C4F900218020FFF7C0F948
:104390000AE01248844207D101218015FFF7B8F9DD
:1043A0000021A015FFF7B4F910BD00000000014086
:1043B0000004004000080040000C004000100040D5
:1043C000001400400004014000400140004401404E
:1043D0000048014000180040001C00400020004040
:1043E00030B50246002000230024158A05EA0103A7
:1043F000958905EA010413B10CB1012000E0002009
:1044000030BD1AB183890B43838102E083898B43DA
:104410008381704770B5002400220023058C4FF67D
:10442000FE7635400584028C8388048B4FF68F75A9
:104430002C40B51E2C400D882C43751E2A408D89BA
:104440002A434D882A43104DA84202D00F4DA8425E
:1044500013D14FF6F7752A40CD892A434FF6FB75E5
:104460002A408D882A434FF6FF652B404FF6FF55B3
:104470002B400D8A2B434D8A2B43838004838D6808
:104480004563028470BD000000000140000401404B
:104490000A460021018B4FF6F7731940114301833F
:1044A0007047000070B5002400220023058C4FF6F1
:1044B000EF7635400584028C8388048B48F6FF75BF
:1044C0002C404FF6FF452C400D884FF6FF7606EA4C
:1044D00005252C434FF6DF752A408D8906EA051520
:1044E0002A434D8806EA05152A43154DA84202D0F5
:1044F000144DA8421DD14FF67F752A40CD894FF645
:10450000FF7606EA05152A434FF6BF752A408D88C7
:1045100006EA05152A434FF6FF352B404FF2FF758B
:104520002B400D8A06EA85052B434D8A06EA850550
:104530002B43838004838D688563028470BD0000F3
:1045400000000140000401400A460021018B4FF2A7
:10455000FF7319404FF6FF7303EA022319430183E7
:104560007047416370478163704741627047000044
:1045700000220288184B98420ED0184B98420BD05C
:10458000B0F1804F08D0164B984205D0154B984299
:1045900002D0154B984204D14FF68F731A404B88C6
:1045A0001A43124B984207D0114B984204D04FF651
:1045B000FF431A400B891A4302804B68C3620B8881
:1045C0000385054B984202D0044B984201D18B7A67
:1045D00003860123838270470000014000040140EC
:1045E0000004004000080040000C004000100040A3
:1045F0000014004070B505460C4622462946134873
:104600000068801CFCF78DF82046E11704EB11616F
:10461000090A0E4A12681170E11704EB11610912C0
:10462000A4EB0121094A126851700848006800F59E
:10463000967006490860084600680549096888427E
:1046400002D104480149086070BD00003C00002010
:10465000440000207806002010B540F225511D4886
:1046600000F0BFF810B31B4800F074F9C4B21A4848
:10467000008800F40040C8B91748008800F4804062
:1046800060B10A2C03D000201349088020E01248B2
:10469000008840F400401049088019E00D2C06D134
:1046A0000D48008840F480400B49088010E00A481B
:1046B0000088C0F30D0009490C5407480088401CCD
:1046C0000549088008460088C72801DD00200880C9
:1046D00010BD00000010014088000020601D002077
:1046E00010B540F22551184800F07BF858B3174830
:1046F000007880B91448001D008820B31248001DBE
:1047000000881349134A1268885412480068401CF4
:104710001049086017E00C48001D00880C490D4A3C
:10472000126888540B48006820B901210A48FFF735
:1047300082FD03E000210848FFF717FF05480068E5
:10474000401C0449086010BD004400407100002076
:1047500060150020780000200008004010B540F2ED
:104760002551054800F03DF820B1034800F0F2F86B
:104770000249087010BD0000004800407D00002084
:1047800000BF0549098801F040010029F9D002491C
:10479000091D0880704700000048004030B50246FF
:1047A0000B46002405E012F8010BFFF7E9FF601C3F
:1047B000C4B29C42F7DB30BD01F40072B2F5007F59
:1047C00000D100BFCA430280704721B1828942F400
:1047D0000052828104E082894DF6FF731A40828183
:1047E000704770B50246002400230025002040F6E3
:1047F0006A16B14200D100BFC1F3421501F01F0398
:10480000012606FA03F3012D02D19689334006E012
:10481000022D02D1168A334001E0968A33400C12F1
:10482000012606FA04F41688344013B10CB10120B5
:1048300000E0002070BDF0B50346002400260025EE
:10484000002040F66A17B94200D100BF1846C1F3F4
:10485000421401F01F06012707FA06F5012C01D1C9
:104860000C3004E0022C01D1103000E014301AB1F9
:1048700007682F43076002E00768AF430760F0BD99
:104880002DE9FF4705460E460024A14600BFA0467D
:10489000B08900B100BF2C8A24F44054F08804434E
:1048A0002C82AC8941F20C608443B0883189084382
:1048B000718908430443AC81AC8A24F44074B08904
:1048C0000443AC826846FEF753FF2048854202D07D
:1048D0001F48854202D1DDF80C9001E0DDF8089018
:1048E000A88900F4004040B109EBC90000EB0910B1
:1048F00031684900B0FBF1F707E009EBC90000EBB4
:10490000091031688900B0FBF1F76420B7FBF0F0C3
:1049100004012009642101FB1078A88900F40040FB
:1049200040B1322000EBC800B0FBF1F000F007000E
:10493000044308E0322000EB08106421B0FBF1F0E2
:1049400000F00F0004432C81BDE8FF8700100140F8
:104950000014014001468888C0F30800704700BF7A
:10496000FEE7000010B588B0044601214804FEF7B8
:10497000BFFE01210846FEF7ABFE0C200690022088
:104980008DF81C008DF81D0000208DF81E00012000
:104990008DF81F0006A91E48FDF78FFC0722022193
:1049A0001B48FDF7D2FC072203211948FDF7CDFC77
:1049B00002940020ADF80C00ADF80E00ADF8100028
:1049C000ADF814000C20ADF8120002A91148FFF751
:1049D00057FF20210F48FFF7EFFE012240F225513B
:1049E0000C48FFF728FF26208DF8040005208DF8DD
:1049F000050001208DF806008DF8070001A8FEF7DC
:104A0000F3FA01210348FFF7E0FE08B010BD0000F3
:104A1000000002400044004010B588B00446012167
:104A20008804FEF765FE01210420FEF751FE4FF4D5
:104A30004060069002208DF81C008DF81D000020BB
:104A40008DF81E0001208DF81F0006A91D48FDF7F6
:104A500034FC07220A211B48FDF777FC07220B21B3
:104A60001848FDF772FC02940020ADF80C00ADF878
:104A70000E00ADF81000ADF814000C20ADF81200D7
:104A800002A91148FFF7FCFE20210F48FFF794FE12
:104A9000012240F225510C48FFF7CDFE27208DF86A
:104AA000040003208DF8050001208DF806008DF824
:104AB000070001A8FEF798FA01210348FFF785FED9
:104AC00008B010BD000802400048004010B539A0F1
:104AD000FBF734FC322000F06FFA20B139A0FBF76D
:104AE0002DFC012010BD3DA0FBF728FC3EA0FBF7EC
:104AF00025FC322141A000F0B7FA20B142A0FBF71B
:104B00001DFC0220EEE747A0FBF718FC4A4800789E
:104B100000281ED149A0FBF711FC32214CA000F067
:104B2000A3FA20B14EA0FBF709FC0320DAE754A05A
:104B3000FBF704FC57A0FBF701FC1E2000F0E8F98E
:104B400020B159A0FBF7FAFB0420CBE75DA0FBF7EF
:104B5000F5FB61A0FBF7F2FB322163A000F084FAC1
:104B600020B165A0FBF7EAFB0820BBE769A0FBF7D3
:104B7000E5FB6CA0FBF7E2FB32216FA000F074FABA
:104B800020B170A0FBF7DAFB0920ABE775A0FBF7BB
:104B9000D5FB79A0FBF7D2FB642000F00FF920B120
:104BA0007AA0FBF7CBFB0A209CE77FA0FBF7C6FBB4
:104BB000002097E7D7BCB1B8B8B4CEBBC4A3BFE957
:104BC0000D0A0000B8B4CEBBCAA7B0DCA3ACD7BCFA
:104BD000B1B8D6D8C6F40D0A00000000B8B4CEBBF8
:104BE000B3C9B9A60D0A0000D7BCB1B8C9E8D6C38D
:104BF000535441C4A3CABD0D0A00000041542B43C5
:104C0000574D4F44453D3100C9E8D6C3535441C4C4
:104C1000A3CABDCAA7B0DCA3ACD7BCB1B8D6D8C6AE
:104C2000F40D0A00C9E8D6C3535441C4A3CABDB3A6
:104C3000C9B9A60D0A0000007C000020D7BCB1B89D
:104C4000C8A1CFFBD7D4B6AFC1ACBDD30D0A00000D
:104C500041542B43574155544F434F4E4E3D300026
:104C6000C8A1CFFBD7D4B6AFC1ACBDD3CAA7B0DC07
:104C7000A3ACD7BCB1B8D6D8C6F40D0A000000006A
:104C8000C8A1CFFBD7D4B6AFC1ACBDD3B3C9B9A609
:104C90000D0A0000D7BCB1B8C1ACBDD3C2B7D3C9EF
:104CA000C6F70D0A00000000C1ACBDD3C2B7D3C91E
:104CB000C6F7CAA7B0DCA3ACD7BCB1B8D6D8C6F487
:104CC0000D0A0000C1ACBDD3C2B7D3C9C6F7B3C982
:104CD000B9A60D0A00000000D7BCB1B8C9E8D6C318
:104CE000CDB8B4AB0D0A000041542B4349504D4F91
:104CF00044453D3100000000C9E8D6C3CDB8B4AB8F
:104D0000CAA7B0DCA3ACD7BCB1B8D6D8C6F40D0ADC
:104D100000000000C9E8D6C3CDB8B4ABB3C9B9A68A
:104D20000D0A0000D7BCB1B8B9D8B1D5B6E0C2B74A
:104D3000C1ACBDD30D0A000041542B4349504D5521
:104D4000583D3000B9D8B1D5B6E0C2B7C1ACBDD37B
:104D5000CAA7B0DCA3ACD7BCB1B8D6D8C6F40D0A8C
:104D600000000000B9D8B1D5B6E0C2B7C1ACBDD320
:104D7000B3C9B9A60D0A0000D7BCB1B8C1ACBDD348
:104D8000B7FECEF1C6F70D0A00000000C1ACBDD3DE
:104D9000B7FECEF1C6F7CAA7B0DCA3ACD7BCB1B89A
:104DA000D6D8C6F40D0A0000C1ACBDD3B7FECEF113
:104DB000C6F7B3C9B9A60D0A0000000010B5044635
:104DC00000202E4908604FF480612D48FBF7EEFC6F
:104DD0002C482D4902682DA000F006FB1AE0642043
:104DE00000F0BCF930A12648FBF73EFC00B115E00D
:104DF0002FA12348FBF738FC08B1012010BD2EA1DC
:104E00001F48FBF731FC08B10220F7E721462FA02D
:104E1000FBF794FA201EA4F10104E0D100BF2CA0FE
:104E2000FBF78CFA002C01DC0320E7E729A0FBF755
:104E300085FA0020114908604FF480611048FBF7A3
:104E4000B5FC2CA000F0D0FA0CE0642000F086F94C
:104E50002CA10B48FBF708FC00B107E021461BA082
:104E6000FBF76CFA201EA4F10104EED100BF002C68
:104E700001DC0420C2E70020C0E700007800002029
:104E80006015002060000020B013002041542B4327
:104E9000495053544152543D22544350222C222510
:104EA00073222C25640D0A00434F4E4E4543540097
:104EB000434C4F5345440000414C52454144592016
:104EC000434F4E4E454354454400000025642000A6
:104ED0000D0A0000C1ACBDD3B7FECEF1C6F7B3C911
:104EE000B9A6A3ACD7BCB1B8BDF8C8EBCDB8B4ABCC
:104EF0000D0A000041542B43495053454E440D0ABE
:104F0000000000000D0A4F4B0D0A0D0A3E00000084
:104F100010B504460020144908604FF4806113481E
:104F2000FBF744FC12A215A116A000F05DFA0DE0FB
:104F30004FF47A7000F012F918A10C48FBF794FBBB
:104F400000B107E021461AA0FBF7F8F9201EA4F1F2
:104F50000104EDD100BF17A0FBF7F0F9002C01DC34
:104F6000012010BD0020FCE7780000206015002023
:104F70007A786376626E6D2E2E0000004172657342
:104F80000000000041542B43574A41503D222573F5
:104F9000222C222573220D0A0000000057494649A1
:104FA00020474F542049500D0A0D0A4F4B00000076
:104FB000256420000D0A000010B5044600221021CF
:104FC0001348FDF7E7F94FF4FA7000F0C7F8012233
:104FD00010210F48FDF7DEF90CE0642000F0BEF868
:104FE0000CA10E48FBF740FB00B107E021460CA0E6
:104FF000FBF7A4F9201EA4F10104EED100BF09A023
:10500000FBF79CF9002C01DC012010BD0020FCE71F
:1050100000000240726561647900000060150020A4
:10502000256420000D0A00001CB501210846FEF78A
:105030004FFB1020009002208DF8050001208DF814
:10504000040000208DF8060001208DF80700694655
:105050000448FDF732F9012210210248FDF79AF9C0
:105060001CBD00000000024070B505460C46002043
:10507000134908604FF480611248FBF797FB2946FB
:1050800011A000F0B1F90CE0642000F067F810A165
:105090000C48FBF7E9FA00B107E021460DA0FBF749
:1050A0004DF9201EA4F10104EED100BF0AA0FBF7C8
:1050B00045F9002C01DC012070BD0020FCE7000058
:1050C000780000206015002025730D0A0000000004
:1050D0004F4B0000256420000D0A000003B4019826
:1050E0004100009850EAC12018BF04204A0D18BFA3
:1050F00040F0010040F2FF72B2EB515F08BF40F098
:105100000200012808BF052002B0704730380A2885
:1051100001D2012070470020704700BF7047000097
:1051200010B504466FF00400FEF717FDE11704EB1D
:105130005171C1F3C701074A11701046007800EBA6
:105140004001C1EBC0104FF6FF7101EAC0000249F7
:10515000088010BD7E0000208000002070B504464D
:105160004FF4077094FBF0F0C6B24FF4077094FB55
:10517000F0F100FB114085B205E04FF4077000F03C
:105180002FF8701EC6B2002EF7D115B1284600F0D8
:1051900027F870BD0146114A12784A434FF0E023C8
:1051A0005A6100229A611A46126942F001021A619C
:1051B00000BF4FF0E022106900F001021AB100F4C4
:1051C0008032002AF5D04FF0E022126922F001026D
:1051D0004FF0E0231A6100229A6170477E000020A0
:1051E0000146114A12884A434FF0E0235A610022D7
:1051F0009A611A46126942F001021A6100BF4FF02B
:10520000E022106900F001021AB100F48032002A95
:10521000F5D04FF0E022126922F001024FF0E023B6
:105220001A6100229A6170478000002000BF054A81
:10523000128802F04002002AF9D0C2B2014B9A80D3
:10524000704700000010014010B50F48006830B1F1
:1052500000200E4908600EA00F49086005E00120FB
:105260000A4908600DA00C4908600B4801680D4808
:105270000068FBF7E5FA28B1FEF766FB0648006810
:105280000849086010BD000020024242A882424244
:105290004C45444F4E000000180000204C45444F40
:1052A000464600001C0000204FF44070FDF7D8FE79
:1052B000A820FFF735FF4FF4E13000F0C3F8FDF709
:1052C00075FBFDF73FFBFCF7B1FF4FF4E130FFF753
:1052D00049FB4FF4E1514FF4FA70FEF76BFFFEF714
:1052E00087FB4FF41650FFF797FBFFF79DFEFDF786
:1052F00093FAFEF7D9F8FDF7BFF80BE000F00CF8D1
:10530000FCF71CFD00F0F4F8FFF79EFF00F036F804
:10531000FEF748F9F2E7000010B52DED068B0024EA
:105320000520FDF755F80446E4B1204600F015FCD1
:1053300041EC1A0B9FED0C0B53EC102B00F024FCEE
:1053400041EC190B9FED0A0B53EC102B00F0D8F930
:1053500041EC180B00F0D4FB074908800120BDEC9C
:10536000068B10BD0020FAE748E17A14AE470D40E5
:10537000000000000088B3402000002010B5FDF7B9
:105380003BF8BDEEC00A10EE104A44B100EE104AE0
:10539000B8EEC00A034880ED000A012010BD0020CD
:1053A000FCE700002C00002000BF0E4A128802F02B
:1053B0004002002AF9D001210CE04A1C825C094B12
:1053C0001B1D1A8000BF074A128802F04002002A03
:1053D000F9D0491C4378027803EB02228A42ECDAC6
:1053E00070470000004400400FB438B505A8009095
:1053F0001248009A0499FAF78FFF002000900F4896
:10540000FBF770F9054600BF0D48008800F040002A
:105410000028F9D000240CE00848005D0849091D67
:10542000088000BF0648008800F040000028F9D03E
:10543000641CAC42F0D338BC5DF814FB601900204A
:105440000044004010B588B0044601210846FEF72C
:105450003FF901211020FEF76BF9072209212248AC
:10546000FCF773FF07220A211F48FCF76EFF4FF479
:10547000C060069002208DF81C008DF81D000020F1
:105480008DF81E0001208DF81F0006A91648FCF7B4
:1054900014FF02940020ADF80C00ADF80E00ADF83A
:1054A0001000ADF814000C20ADF8120002A90F484E
:1054B000FFF7E6F901210D48FFF787F9012240F2D5
:1054C00025510A48FFF7B7F925208DF8040003207D
:1054D0008DF805008DF8060001208DF8070001A861
:1054E000FDF782FD08B010BD000002400010014031
:1054F00010B53E480078062843D006DC012809D0C4
:10550000022812D004286FD125E008284FD0122895
:105510006AD162E0042136A0FFF740F936A0FAF71D
:105520000DFF0020314908705EE0082134A0FFF72C
:1055300035F940F2D6613548FFF713F840F6B83038
:10554000FFF70CFE40F299713048FFF70AF800208F
:105550002649087048E00A212DA0FFF71FF940F204
:10556000D6612A48FEF7FFFF40F6B830FFF7F6FD98
:1055700040F299712548FEF7F6FF00201B4908709C
:1055800032E0082125A0FFF709F940F2D66126484C
:10559000FEF7E7FF40F6B830FFF7E0FD40F2997103
:1055A0002148FEF7DEFF0020104908701CE00821AA
:1055B0001EA0FFF7F3F840F2D6611F48FEF7D1FFB7
:1055C00040F6B830FFF7CAFD40F299711A48FEF76D
:1055D000C8FF00200549087006E018A0FAF7AEFEE3
:1055E00000200249087000BF00BF10BD7D000020F0
:1055F000CAD5B5BD00000000CAD5B5BD0D0A000072
:10560000B3F8D3E0C0ACBBF80000000000180040C5
:10561000BFC9BBD8CAD5C0ACBBF80000C6E4CBFC40
:10562000C0ACBBF800000000001C0040D3D0BAA6FC
:10563000C0ACBBF80000000000200040C6E4CBFC7A
:105640000D0A000010B500290AD00878002807D0FC
:1056500005487844FBF7F4F8002801D0002010BD7D
:105660000248784410BD0000461800003E180000B3
:1056700010B500290AD00878002807D005487844DA
:10568000FBF7DEF8002801D0002010BD0248784466
:1056900010BD0000361800002E18000021F0004256
:1056A000A2F16052B2F5801F01F0004328BFD2F191
:1056B0007F6C0BD95FEA001C43EAC20242EB5070D8
:1056C00018BF704728BF20F001007047B2F5801F57
:1056D000BCBF184670474FEA410C1CF5001F02D2B0
:1056E000084600F0AFBC70B500F0F8FA0000008981
:1056F000FFF7F6BF4FF00040A0F5800070470000B4
:1057000010B591EA030F48BF83F0004300F14283D4
:10571000841A71EB030C05D2121943EB0C03001B26
:1057200061EB0C01DFF824E14FEA1154A4EB135CA8
:105730001EEA430F18BF9EEA445F73D023EA0E03AC
:10574000DCF1200E21EA045143F4801332D322FA13
:105750000CFE10EB0E0023FA0CFE41EB0E01CCF117
:10576000200E03FA0EFE10EB0E0051F10001B1F510
:10577000801FCCF1200E32D201EB045112FA0EF24E
:10578000BDE8104058BF7047401C38BF5FEA420276
:1057900018BF7047002814BF20F0010041F100013C
:1057A0004FEA410313F5001F38BF7047A1F1C04114
:1057B00000F0E2BA012A43EB0302ACF1200CDCF169
:1057C0001F0E32BF4FF0000E23FA0CF310EB030054
:1057D00041EB0451B4EB115FD0D0A1EB045101F5C2
:1057E000801149085FEA300001EB04510ED350F1FB
:1057F000000038BF12FA0EFE08D1BDE81040C9E71C
:10580000401C38BF5FEA4202CAD1C3E7BDE810407E
:105810004FEA410313F5001F38BF7047A1F1C041A3
:1058200000F0AABA9EEA445F08D011EA5E0FBDE814
:10583000104004BF01F0004100207047BDE8104057
:1058400070B500F04BFA00BF64FBBE3E0000E0FF05
:105850002DE9C04130B4DFF8A0C23CEA111418BFF2
:105860003CEA131400F0EC8081EA03051CEA1114F1
:1058700044EAD57418BF1CEA131500F0C780A4EBE6
:1058800005044FF0004545EAC12145EAC32341EA3A
:10589000505143EA525304F17F74994204F50034A5
:1058A0004FEAC0204FEAC22208BF904200F09C801D
:1058B0004FEA13650FF24016765D4FEA134506FB7B
:1058C00005F7C7F1807706FB07F74FEAD737A7FB45
:1058D00003687642C8F58038A7FB06CE38BFA8F12A
:1058E000010807FB08E64FF0000EA6FB028CE6FB62
:1058F00003CEDCF1000CCEF1004E38BFAEF1010E4C
:10590000A6FB0C584FF000074FF00005E6FB0E8792
:10591000A1FB08C6A0FB07CE16EB0E0645F100055D
:10592000E1FB076515F1E04E7EBFA4F580345FEA28
:1059300046066D4116F1800745F100054FEA17272D
:105940004FEA066647EA0567A6F1DE46B6F1805FD4
:105950004FEA15251FD9384624F0010C05EBC47118
:10596000BCF1FE6F01EB0C1102D8F0BCBDE8008168
:1059700024425CBF01F5801E9EEAC47F02D4F0BCC5
:10598000BDE80081244238D4F0BCA1F1C041BDE89B
:10599000004100F0F1B94FEAD22242EA43524FEA05
:1059A000D323A7FB02864FEAD02040EA415007FBF1
:1059B00003661EEA0E0F4FEAD12105FB026658BFAF
:1059C000A6EB0056B6EB00564FEA520E4EEAC37EE7
:1059D00018EB0E0E56EB530EBDD518EB02085E41C8
:1059E0007F1C55F10005B6E74FF480154FF0000716
:1059F0004FF000064FF00008ADE7F0BC4FF000009C
:105A000001F1C04101F00041BDE8008111EA0C1F25
:105A10000CEA131500D00CE013EA0C1F00F02580EF
:105A20004FF00000F0BC81EA030101F00041BDE845
:105A30000081F0BCBDE8004181EA030100F09CB99F
:105A4000F0BCBDE8004170B500F048F9097EFC3EAD
:105A500000F007B881EA03014FF0000001F00041B7
:105A6000704781EA030100F087B9F0BCBDE800414E
:105A70004FF0000021497047FFFDFBF9F7F5F4F204
:105A8000F0EEEDEBE9E8E6E4E3E1E0DEDDDBDAD8D9
:105A9000D7D5D4D3D1D0CFCDCCCBCAC8C7C6C5C437
:105AA000C2C1C0BFBEBDBCBBBAB9B8B7B6B5B4B34E
:105AB000B2B1B0AFAEADACABAAA9A8A8A7A6A5A439
:105AC000A3A3A2A1A09F9F9E9D9C9C9B9A999998FD
:105AD0009797969595949393929191908F8F8E8EA0
